:0A000000D1290000000000000028D4
:10000A00710DF80DF90D7408F8027508031C750FC7
:10001A00F902F00DF10D0F30FC00710DF80DF90D1C
:10002A007408701C1E28F8027508031C750FF90263
:10003A002328F80775080318750FF907F00DF10D55
:10004A00FC0B122870182F287408F8077508031873
:08005A00750FF9070000080012
:100062003F3083120313B9000630BA005B30BB0085
:100072004F30BC006630BD006D30BE007D30BF0029
:100082000730C0007F30C1006F30C2003808393EEF
:0800920084000008F0000800E2
:10009A0083120313FD01F901F801710870040319B1
:1000AA00003471087506FA00FA1BFD09FB01F51FF9
:1000BA006328F409F509F40A0319F50AF11F6A28F5
:1000CA00F009F109F00A0319F10A71087504FA0036
:1000DA00FA1B7F2805207B189228FD1F0034F0099F
:1000EA00F109F00A0319F10AF809F909F80A0319DA
:1000FA00F90A0034F51F8E28F11B8A287108F900C5
:10010A007008F800F101F0017228F101F001F00A1B
:10011A000034F109F009FB0A6F28F80A0319F90AF1
:10012A0074087802031D722875087902031D722863
:10013A00F901F801F00A0319F10AF11F7228000007
:04014A00FF34080076
:10014E0001308312031388003008B8003120700884
:10015E0086000330FB000830FC007730FD00FD0BFD
:10016E00B628FC0BB628FB0BB628023088003208E6
:10017E00B8003120700886000330FB000830FC0008
:10018E007730FD00FD0BC928FC0BC928FB0BC928D5
:10019E00043088003408B80031207008860003301F
:1001AE00FB000830FC007730FD00FD0BDC28FC0B5B
:1001BE00DC28FB0BDC28083088003608B80031201C
:1001CE00700886000330FB000830FC007730FD001D
:0E01DE00FD0BEF28FC0BEF28FB0BEF280800B1
:1001EC0083120313FB01FA01F9018030F800F10CC2
:1001FC00F00C031C0A297408F90775080318750F0D
:10020C00FA070318FB0A0310F01F12297408FA07E7
:10021C0075080318750FFB07FB0CFA0CF90CF80C9E
:10022C00031CFD287B08F3007A08F2007908F10022
:06023C007808F000080044
:0E0242008312031321088A002008820008009E
:1002500021218A110A128000840AA00A0319A10A26
:08026000F003031D282908002A
:10026800E83083120313F4000330F5002E08F00081
:100278002F08F1004D207808F0007908F100700887
:100288002E02F0007108031C013E2F02F100E83035
:10029800F4000330F5004D207008AC007108AD0083
:1002A800E830F4000330F500F62070082E02F00064
:1002B8007108031C013E2F02F1007008AE0071089E
:1002C800AF006430F4000030F5004D207808F000ED
:1002D8007908F10070082E02F0007108031C013E35
:1002E8002F02F1006430F4000030F5004D20700852
:1002F800A2007108A3006430F4000030F500F62075
:1003080070082E02F0007108031C013E2F02F10054
:100318007008AE007108AF000A30F4000030F50034
:100328004D207808F0007908F10070082E02F000DE
:100338007108031C013E2F02F1000A30F40000305E
:10034800F5004D207008A4007108A5000A30F400DB
:100358000030F500F62070082E02F0007108031C2A
:10036800013E2F02F1007008AE007108AF0070085E
:10037800A6007108A7002C08B0002D08B1002208BB
:10038800B2002308B3002408B4002508B50070089B
:0A039800B6007108B700A7200800A6
:1003A2006E30831603138F0007309C008F309F003E
:1003B200860188018312A801A90180302906F00074
:1003C20080307002031DE7293230280203180E2AFA
:1003D200AA01AB0180302B06F0008030273A700270
:1003E200031DF52910302A020318002A2A08AE003C
:1003F2002B08AF003421AA0A0319AB0AEB290330F8
:10040200FC009730FD00FD0B042AFC0B042A0000BF
:0E0412000000A80A0319A90ADE29DB290F2A17
:04400E00EA39430048
:00000001FF
